{
  "_format": "hh-sol-artifact-1",
  "contractName": "MyEpicGame",
  "sourceName": "contracts/MyEpicGame.sol",
  "abi": [
    {
      "inputs": [
        {
          "internalType": "string[]",
          "name": "characterNames",
          "type": "string[]"
        },
        {
          "internalType": "string[]",
          "name": "characterImageURIs",
          "type": "string[]"
        },
        {
          "internalType": "uint256[]",
          "name": "characterHp",
          "type": "uint256[]"
        },
        {
          "internalType": "uint256[]",
          "name": "characterAttackDmg",
          "type": "uint256[]"
        },
        {
          "internalType": "string",
          "name": "bossName",
          "type": "string"
        },
        {
          "internalType": "string",
          "name": "bossImageURI",
          "type": "string"
        },
        {
          "internalType": "uint256",
          "name": "bossHp",
          "type": "uint256"
        },
        {
          "internalType": "uint256",
          "name": "bossAttackDamage",
          "type": "uint256"
        }
      ],
      "stateMutability": "nonpayable",
      "type": "constructor"
    },
    {
      "anonymous": false,
      "inputs": [
        {
          "indexed": true,
          "internalType": "address",
          "name": "owner",
          "type": "address"
        },
        {
          "indexed": true,
          "internalType": "address",
          "name": "approved",
          "type": "address"
        },
        {
          "indexed": true,
          "internalType": "uint256",
          "name": "tokenId",
          "type": "uint256"
        }
      ],
      "name": "Approval",
      "type": "event"
    },
    {
      "anonymous": false,
      "inputs": [
        {
          "indexed": true,
          "internalType": "address",
          "name": "owner",
          "type": "address"
        },
        {
          "indexed": true,
          "internalType": "address",
          "name": "operator",
          "type": "address"
        },
        {
          "indexed": false,
          "internalType": "bool",
          "name": "approved",
          "type": "bool"
        }
      ],
      "name": "ApprovalForAll",
      "type": "event"
    },
    {
      "anonymous": false,
      "inputs": [
        {
          "indexed": false,
          "internalType": "uint256",
          "name": "newBossHp",
          "type": "uint256"
        },
        {
          "indexed": false,
          "internalType": "uint256",
          "name": "newPlayerHp",
          "type": "uint256"
        }
      ],
      "name": "AttackComplete",
      "type": "event"
    },
    {
      "anonymous": false,
      "inputs": [
        {
          "indexed": false,
          "internalType": "address",
          "name": "sender",
          "type": "address"
        },
        {
          "indexed": false,
          "internalType": "uint256",
          "name": "tokenId",
          "type": "uint256"
        },
        {
          "indexed": false,
          "internalType": "uint256",
          "name": "characterIndex",
          "type": "uint256"
        }
      ],
      "name": "CharacterNFTMinted",
      "type": "event"
    },
    {
      "anonymous": false,
      "inputs": [
        {
          "indexed": false,
          "internalType": "uint256",
          "name": "beforeHp",
          "type": "uint256"
        },
        {
          "indexed": false,
          "internalType": "uint256",
          "name": "afterHp",
          "type": "uint256"
        }
      ],
      "name": "Healing",
      "type": "event"
    },
    {
      "anonymous": false,
      "inputs": [
        {
          "indexed": true,
          "internalType": "address",
          "name": "from",
          "type": "address"
        },
        {
          "indexed": true,
          "internalType": "address",
          "name": "to",
          "type": "address"
        },
        {
          "indexed": true,
          "internalType": "uint256",
          "name": "tokenId",
          "type": "uint256"
        }
      ],
      "name": "Transfer",
      "type": "event"
    },
    {
      "inputs": [
        {
          "internalType": "address",
          "name": "to",
          "type": "address"
        },
        {
          "internalType": "uint256",
          "name": "tokenId",
          "type": "uint256"
        }
      ],
      "name": "approve",
      "outputs": [],
      "stateMutability": "nonpayable",
      "type": "function"
    },
    {
      "inputs": [],
      "name": "attackBoss",
      "outputs": [],
      "stateMutability": "nonpayable",
      "type": "function"
    },
    {
      "inputs": [
        {
          "internalType": "address",
          "name": "owner",
          "type": "address"
        }
      ],
      "name": "balanceOf",
      "outputs": [
        {
          "internalType": "uint256",
          "name": "",
          "type": "uint256"
        }
      ],
      "stateMutability": "view",
      "type": "function"
    },
    {
      "inputs": [],
      "name": "bigBoss",
      "outputs": [
        {
          "internalType": "string",
          "name": "name",
          "type": "string"
        },
        {
          "internalType": "string",
          "name": "imageURI",
          "type": "string"
        },
        {
          "internalType": "uint256",
          "name": "hp",
          "type": "uint256"
        },
        {
          "internalType": "uint256",
          "name": "maxHp",
          "type": "uint256"
        },
        {
          "internalType": "uint256",
          "name": "attackDamage",
          "type": "uint256"
        }
      ],
      "stateMutability": "view",
      "type": "function"
    },
    {
      "inputs": [],
      "name": "checkIfUserHasNFT",
      "outputs": [
        {
          "components": [
            {
              "internalType": "uint256",
              "name": "characterIndex",
              "type": "uint256"
            },
            {
              "internalType": "string",
              "name": "name",
              "type": "string"
            },
            {
              "internalType": "string",
              "name": "imageURI",
              "type": "string"
            },
            {
              "internalType": "uint256",
              "name": "hp",
              "type": "uint256"
            },
            {
              "internalType": "uint256",
              "name": "maxHp",
              "type": "uint256"
            },
            {
              "internalType": "uint256",
              "name": "attackDamage",
              "type": "uint256"
            }
          ],
          "internalType": "struct MyEpicGame.CharacterAttributes",
          "name": "",
          "type": "tuple"
        }
      ],
      "stateMutability": "view",
      "type": "function"
    },
    {
      "inputs": [],
      "name": "getAllDefaultCharacters",
      "outputs": [
        {
          "components": [
            {
              "internalType": "uint256",
              "name": "characterIndex",
              "type": "uint256"
            },
            {
              "internalType": "string",
              "name": "name",
              "type": "string"
            },
            {
              "internalType": "string",
              "name": "imageURI",
              "type": "string"
            },
            {
              "internalType": "uint256",
              "name": "hp",
              "type": "uint256"
            },
            {
              "internalType": "uint256",
              "name": "maxHp",
              "type": "uint256"
            },
            {
              "internalType": "uint256",
              "name": "attackDamage",
              "type": "uint256"
            }
          ],
          "internalType": "struct MyEpicGame.CharacterAttributes[]",
          "name": "",
          "type": "tuple[]"
        }
      ],
      "stateMutability": "view",
      "type": "function"
    },
    {
      "inputs": [
        {
          "internalType": "uint256",
          "name": "tokenId",
          "type": "uint256"
        }
      ],
      "name": "getApproved",
      "outputs": [
        {
          "internalType": "address",
          "name": "",
          "type": "address"
        }
      ],
      "stateMutability": "view",
      "type": "function"
    },
    {
      "inputs": [],
      "name": "getBigBoss",
      "outputs": [
        {
          "components": [
            {
              "internalType": "string",
              "name": "name",
              "type": "string"
            },
            {
              "internalType": "string",
              "name": "imageURI",
              "type": "string"
            },
            {
              "internalType": "uint256",
              "name": "hp",
              "type": "uint256"
            },
            {
              "internalType": "uint256",
              "name": "maxHp",
              "type": "uint256"
            },
            {
              "internalType": "uint256",
              "name": "attackDamage",
              "type": "uint256"
            }
          ],
          "internalType": "struct MyEpicGame.BigBoss",
          "name": "",
          "type": "tuple"
        }
      ],
      "stateMutability": "view",
      "type": "function"
    },
    {
      "inputs": [],
      "name": "healing",
      "outputs": [],
      "stateMutability": "nonpayable",
      "type": "function"
    },
    {
      "inputs": [
        {
          "internalType": "address",
          "name": "owner",
          "type": "address"
        },
        {
          "internalType": "address",
          "name": "operator",
          "type": "address"
        }
      ],
      "name": "isApprovedForAll",
      "outputs": [
        {
          "internalType": "bool",
          "name": "",
          "type": "bool"
        }
      ],
      "stateMutability": "view",
      "type": "function"
    },
    {
      "inputs": [
        {
          "internalType": "uint256",
          "name": "_characterIndex",
          "type": "uint256"
        }
      ],
      "name": "mintCharacterNFT",
      "outputs": [],
      "stateMutability": "nonpayable",
      "type": "function"
    },
    {
      "inputs": [],
      "name": "name",
      "outputs": [
        {
          "internalType": "string",
          "name": "",
          "type": "string"
        }
      ],
      "stateMutability": "view",
      "type": "function"
    },
    {
      "inputs": [
        {
          "internalType": "uint256",
          "name": "",
          "type": "uint256"
        }
      ],
      "name": "nftHolderAttributes",
      "outputs": [
        {
          "internalType": "uint256",
          "name": "characterIndex",
          "type": "uint256"
        },
        {
          "internalType": "string",
          "name": "name",
          "type": "string"
        },
        {
          "internalType": "string",
          "name": "imageURI",
          "type": "string"
        },
        {
          "internalType": "uint256",
          "name": "hp",
          "type": "uint256"
        },
        {
          "internalType": "uint256",
          "name": "maxHp",
          "type": "uint256"
        },
        {
          "internalType": "uint256",
          "name": "attackDamage",
          "type": "uint256"
        }
      ],
      "stateMutability": "view",
      "type": "function"
    },
    {
      "inputs": [
        {
          "internalType": "address",
          "name": "",
          "type": "address"
        }
      ],
      "name": "nftHolders",
      "outputs": [
        {
          "internalType": "uint256",
          "name": "",
          "type": "uint256"
        }
      ],
      "stateMutability": "view",
      "type": "function"
    },
    {
      "inputs": [
        {
          "internalType": "uint256",
          "name": "tokenId",
          "type": "uint256"
        }
      ],
      "name": "ownerOf",
      "outputs": [
        {
          "internalType": "address",
          "name": "",
          "type": "address"
        }
      ],
      "stateMutability": "view",
      "type": "function"
    },
    {
      "inputs": [
        {
          "internalType": "address",
          "name": "from",
          "type": "address"
        },
        {
          "internalType": "address",
          "name": "to",
          "type": "address"
        },
        {
          "internalType": "uint256",
          "name": "tokenId",
          "type": "uint256"
        }
      ],
      "name": "safeTransferFrom",
      "outputs": [],
      "stateMutability": "nonpayable",
      "type": "function"
    },
    {
      "inputs": [
        {
          "internalType": "address",
          "name": "from",
          "type": "address"
        },
        {
          "internalType": "address",
          "name": "to",
          "type": "address"
        },
        {
          "internalType": "uint256",
          "name": "tokenId",
          "type": "uint256"
        },
        {
          "internalType": "bytes",
          "name": "_data",
          "type": "bytes"
        }
      ],
      "name": "safeTransferFrom",
      "outputs": [],
      "stateMutability": "nonpayable",
      "type": "function"
    },
    {
      "inputs": [
        {
          "internalType": "address",
          "name": "operator",
          "type": "address"
        },
        {
          "internalType": "bool",
          "name": "approved",
          "type": "bool"
        }
      ],
      "name": "setApprovalForAll",
      "outputs": [],
      "stateMutability": "nonpayable",
      "type": "function"
    },
    {
      "inputs": [
        {
          "internalType": "bytes4",
          "name": "interfaceId",
          "type": "bytes4"
        }
      ],
      "name": "supportsInterface",
      "outputs": [
        {
          "internalType": "bool",
          "name": "",
          "type": "bool"
        }
      ],
      "stateMutability": "view",
      "type": "function"
    },
    {
      "inputs": [],
      "name": "symbol",
      "outputs": [
        {
          "internalType": "string",
          "name": "",
          "type": "string"
        }
      ],
      "stateMutability": "view",
      "type": "function"
    },
    {
      "inputs": [
        {
          "internalType": "uint256",
          "name": "_tokenId",
          "type": "uint256"
        }
      ],
      "name": "tokenURI",
      "outputs": [
        {
          "internalType": "string",
          "name": "",
          "type": "string"
        }
      ],
      "stateMutability": "view",
      "type": "function"
    },
    {
      "inputs": [
        {
          "internalType": "address",
          "name": "from",
          "type": "address"
        },
        {
          "internalType": "address",
          "name": "to",
          "type": "address"
        },
        {
          "internalType": "uint256",
          "name": "tokenId",
          "type": "uint256"
        }
      ],
      "name": "transferFrom",
      "outputs": [],
      "stateMutability": "nonpayable",
      "type": "function"
    }
  ],
  "bytecode": "0x60806040523480156200001157600080fd5b5060405162005bba38038062005bba833981810160405281019062000037919062000a85565b6040518060400160405280600881526020017f506f6b656d6f6e730000000000000000000000000000000000000000000000008152506040518060400160405280600781526020017f504f4b454d4f4e000000000000000000000000000000000000000000000000008152508160009080519060200190620000bb929190620007ed565b508060019080519060200190620000d4929190620007ed565b50505060005b8851811015620004f357600c6040518060c001604052808381526020018b848151811062000131577f4e487b7100000000000000000000000000000000000000000000000000000000600052603260045260246000fd5b602002602001015181526020018a848151811062000178577f4e487b7100000000000000000000000000000000000000000000000000000000600052603260045260246000fd5b60200260200101518152602001898481518110620001bf577f4e487b7100000000000000000000000000000000000000000000000000000000600052603260045260246000fd5b6020026020010151815260200189848151811062000206577f4e487b7100000000000000000000000000000000000000000000000000000000600052603260045260246000fd5b602002602001015181526020018884815181106200024d577f4e487b7100000000000000000000000000000000000000000000000000000000600052603260045260246000fd5b60200260200101518152509080600181540180825580915050600190039060005260206000209060060201600090919091909150600082015181600001556020820151816001019080519060200190620002a9929190620007ed565b506040820151816002019080519060200190620002c8929190620007ed565b50606082015181600301556080820151816004015560a0820151816005015550506000600c828154811062000326577f4e487b7100000000000000000000000000000000000000000000000000000000600052603260045260246000fd5b90600052602060002090600602016040518060c0016040529081600082015481526020016001820180546200035b9062000e08565b80601f0160208091040260200160405190810160405280929190818152602001828054620003899062000e08565b8015620003da5780601f10620003ae57610100808354040283529160200191620003da565b820191906000526020600020905b815481529060010190602001808311620003bc57829003601f168201915b50505050508152602001600282018054620003f59062000e08565b80601f0160208091040260200160405190810160405280929190818152602001828054620004239062000e08565b8015620004745780601f10620004485761010080835404028352916020019162000474565b820191906000526020600020905b8154815290600101906020018083116200045657829003601f168201915b5050505050815260200160038201548152602001600482015481526020016005820154815250509050620004db60405180606001604052806025815260200162005b6b602591398260200151836060015184604001516200070260201b62001d851760201c565b50600181620004eb919062000d6b565b9050620000da565b506040518060a0016040528085815260200184815260200183815260200183815260200182815250600660008201518160000190805190602001906200053b929190620007ed565b5060208201518160010190805190602001906200055a929190620007ed565b50604082015181600201556060820151816003015560808201518160040155905050620006dd6040518060600160405280602a815260200162005b90602a913960066000018054620005ac9062000e08565b80601f0160208091040260200160405190810160405280929190818152602001828054620005da9062000e08565b80156200062b5780601f10620005ff576101008083540402835291602001916200062b565b820191906000526020600020905b8154815290600101906020018083116200060d57829003601f168201915b505050505060066002015460066001018054620006489062000e08565b80601f0160208091040260200160405190810160405280929190818152602001828054620006769062000e08565b8015620006c75780601f106200069b57610100808354040283529160200191620006c7565b820191906000526020600020905b815481529060010190602001808311620006a957829003601f168201915b50505050506200070260201b62001d851760201c565b620006f4600b620007ae60201b62001e271760201c565b505050505050505062000f2c565b620007a8848484846040516024016200071f949392919062000c30565b6040516020818303038152906040527f8d142cdd000000000000000000000000000000000000000000000000000000007bffffffffffffffffffffffffffffffffffffffffffffffffffffffff19166020820180517bffffffffffffffffffffffffffffffffffffffffffffffffffffffff8381831617835250505050620007c460201b60201c565b50505050565b6001816000016000828254019250508190555050565b60008151905060006a636f6e736f6c652e6c6f679050602083016000808483855afa5050505050565b828054620007fb9062000e08565b90600052602060002090601f0160209004810192826200081f57600085556200086b565b82601f106200083a57805160ff19168380011785556200086b565b828001600101855582156200086b579182015b828111156200086a5782518255916020019190600101906200084d565b5b5090506200087a91906200087e565b5090565b5b80821115620008995760008160009055506001016200087f565b5090565b6000620008b4620008ae8462000cbb565b62000c92565b90508083825260208201905082856020860282011115620008d457600080fd5b60005b858110156200092357815167ffffffffffffffff811115620008f857600080fd5b80860162000907898262000a41565b85526020850194506020840193505050600181019050620008d7565b5050509392505050565b6000620009446200093e8462000cea565b62000c92565b905080838252602082019050828560208602820111156200096457600080fd5b60005b858110156200099857816200097d888262000a6e565b84526020840193506020830192505060018101905062000967565b5050509392505050565b6000620009b9620009b38462000d19565b62000c92565b905082815260208101848484011115620009d257600080fd5b620009df84828562000dd2565b509392505050565b600082601f830112620009f957600080fd5b815162000a0b8482602086016200089d565b91505092915050565b600082601f83011262000a2657600080fd5b815162000a388482602086016200092d565b91505092915050565b600082601f83011262000a5357600080fd5b815162000a65848260208601620009a2565b91505092915050565b60008151905062000a7f8162000f12565b92915050565b600080600080600080600080610100898b03121562000aa357600080fd5b600089015167ffffffffffffffff81111562000abe57600080fd5b62000acc8b828c01620009e7565b985050602089015167ffffffffffffffff81111562000aea57600080fd5b62000af88b828c01620009e7565b975050604089015167ffffffffffffffff81111562000b1657600080fd5b62000b248b828c0162000a14565b965050606089015167ffffffffffffffff81111562000b4257600080fd5b62000b508b828c0162000a14565b955050608089015167ffffffffffffffff81111562000b6e57600080fd5b62000b7c8b828c0162000a41565b94505060a089015167ffffffffffffffff81111562000b9a57600080fd5b62000ba88b828c0162000a41565b93505060c062000bbb8b828c0162000a6e565b92505060e062000bce8b828c0162000a6e565b9150509295985092959890939650565b600062000beb8262000d4f565b62000bf7818562000d5a565b935062000c0981856020860162000dd2565b62000c148162000f01565b840191505092915050565b62000c2a8162000dc8565b82525050565b6000608082019050818103600083015262000c4c818762000bde565b9050818103602083015262000c62818662000bde565b905062000c73604083018562000c1f565b818103606083015262000c87818462000bde565b905095945050505050565b600062000c9e62000cb1565b905062000cac828262000e3e565b919050565b6000604051905090565b600067ffffffffffffffff82111562000cd95762000cd862000ed2565b5b602082029050602081019050919050565b600067ffffffffffffffff82111562000d085762000d0762000ed2565b5b602082029050602081019050919050565b600067ffffffffffffffff82111562000d375762000d3662000ed2565b5b62000d428262000f01565b9050602081019050919050565b600081519050919050565b600082825260208201905092915050565b600062000d788262000dc8565b915062000d858362000dc8565b9250827fffffffffffffffffffffffffffffffffffffffffffffffffffffffffffffffff0382111562000dbd5762000dbc62000e74565b5b828201905092915050565b6000819050919050565b60005b8381101562000df257808201518184015260208101905062000dd5565b8381111562000e02576000848401525b50505050565b6000600282049050600182168062000e2157607f821691505b6020821081141562000e385762000e3762000ea3565b5b50919050565b62000e498262000f01565b810181811067ffffffffffffffff8211171562000e6b5762000e6a62000ed2565b5b80604052505050565b7f4e487b7100000000000000000000000000000000000000000000000000000000600052601160045260246000fd5b7f4e487b7100000000000000000000000000000000000000000000000000000000600052602260045260246000fd5b7f4e487b7100000000000000000000000000000000000000000000000000000000600052604160045260246000fd5b6000601f19601f8301169050919050565b62000f1d8162000dc8565b811462000f2957600080fd5b50565b614c2f8062000f3c6000396000f3fe608060405234801561001057600080fd5b50600436106101425760003560e01c806398da4c95116100b8578063c87b56dd1161007c578063c87b56dd14610392578063c8cf27f4146103c2578063cc919023146103e0578063d4f24c5b146103ea578063e985e9c5146103f4578063f8b81ef71461042457610142565b806398da4c95146102e5578063a22cb4651461031a578063a9c3267914610336578063b88d4fde14610358578063b953084e1461037457610142565b806323b872dd1161010a57806323b872dd146101ff57806342842e0e1461021b5780636352211e1461023757806370a08231146102675780637df124a11461029757806395d89b41146102c757610142565b806301ffc9a7146101475780630665f9611461017757806306fdde0314610195578063081812fc146101b3578063095ea7b3146101e3575b600080fd5b610161600480360381019061015c91906132c4565b610440565b60405161016e9190613b9a565b60405180910390f35b61017f610522565b60405161018c9190613f33565b60405180910390f35b61019d61067e565b6040516101aa9190613bb5565b60405180910390f35b6101cd60048036038101906101c89190613316565b610710565b6040516101da9190613ada565b60405180910390f35b6101fd60048036038101906101f89190613288565b610795565b005b61021960048036038101906102149190613182565b6108ad565b005b61023560048036038101906102309190613182565b61090d565b005b610251600480360381019061024c9190613316565b61092d565b60405161025e9190613ada565b60405180910390f35b610281600480360381019061027c919061311d565b6109df565b60405161028e9190613f77565b60405180910390f35b6102b160048036038101906102ac919061311d565b610a97565b6040516102be9190613f77565b60405180910390f35b6102cf610aaf565b6040516102dc9190613bb5565b60405180910390f35b6102ff60048036038101906102fa9190613316565b610b41565b60405161031196959493929190613f92565b60405180910390f35b610334600480360381019061032f919061324c565b610c8d565b005b61033e610ca3565b60405161034f959493929190613c84565b60405180910390f35b610372600480360381019061036d91906131d1565b610dd7565b005b61037c610e39565b6040516103899190613b78565b60405180910390f35b6103ac60048036038101906103a79190613316565b610fe4565b6040516103b99190613bb5565b60405180910390f35b6103ca6111ff565b6040516103d79190613f55565b60405180910390f35b6103e86113d7565b005b6103f2611572565b005b61040e60048036038101906104099190613146565b6118fd565b60405161041b9190613b9a565b60405180910390f35b61043e60048036038101906104399190613316565b611991565b005b60007f80ac58cd000000000000000000000000000000000000000000000000000000007bffffffffffffffffffffffffffffffffffffffffffffffffffffffff1916827bffffffffffffffffffffffffffffffffffffffffffffffffffffffff1916148061050b57507f5b5e139f000000000000000000000000000000000000000000000000000000007bffffffffffffffffffffffffffffffffffffffffffffffffffffffff1916827bffffffffffffffffffffffffffffffffffffffffffffffffffffffff1916145b8061051b575061051a82611e3d565b5b9050919050565b61052a612f44565b60066040518060a0016040529081600082018054610547906142d8565b80601f0160208091040260200160405190810160405280929190818152602001828054610573906142d8565b80156105c05780601f10610595576101008083540402835291602001916105c0565b820191906000526020600020905b8154815290600101906020018083116105a357829003601f168201915b505050505081526020016001820180546105d9906142d8565b80601f0160208091040260200160405190810160405280929190818152602001828054610605906142d8565b80156106525780601f1061062757610100808354040283529160200191610652565b820191906000526020600020905b81548152906001019060200180831161063557829003601f168201915b505050505081526020016002820154815260200160038201548152602001600482015481525050905090565b60606000805461068d906142d8565b80601f01602080910402602001604051908101604052809291908181526020018280546106b9906142d8565b80156107065780601f106106db57610100808354040283529160200191610706565b820191906000526020600020905b8154815290600101906020018083116106e957829003601f168201915b5050505050905090565b600061071b82611ea7565b61075a576040517f08c379a000000000000000000000000000000000000000000000000000000000815260040161075190613ed3565b60405180910390fd5b6004600083815260200190815260200160002060009054906101000a900473ffffffffffffffffffffffffffffffffffffffff169050919050565b60006107a08261092d565b90508073ffffffffffffffffffffffffffffffffffffffff168373ffffffffffffffffffffffffffffffffffffffff161415610811576040517f08c379a000000000000000000000000000000000000000000000000000000000815260040161080890613ef3565b60405180910390fd5b8073ffffffffffffffffffffffffffffffffffffffff16610830611f13565b73ffffffffffffffffffffffffffffffffffffffff16148061085f575061085e81610859611f13565b6118fd565b5b61089e576040517f08c379a000000000000000000000000000000000000000000000000000000000815260040161089590613e33565b60405180910390fd5b6108a88383611f1b565b505050565b6108be6108b8611f13565b82611fd4565b6108fd576040517f08c379a00000000000000000000000000000000000000000000000000000000081526004016108f490613f13565b60405180910390fd5b6109088383836120b2565b505050565b61092883838360405180602001604052806000815250610dd7565b505050565b6000806002600084815260200190815260200160002060009054906101000a900473ffffffffffffffffffffffffffffffffffffffff169050600073ffffffffffffffffffffffffffffffffffffffff168173ffffffffffffffffffffffffffffffffffffffff1614156109d6576040517f08c379a00000000000000000000000000000000000000000000000000000000081526004016109cd90613e73565b60405180910390fd5b80915050919050565b60008073ffffffffffffffffffffffffffffffffffffffff168273ffffffffffffffffffffffffffffffffffffffff161415610a50576040517f08c379a0000000000000000000000000000000000000000000000000000000008152600401610a4790613e53565b60405180910390fd5b600360008373ffffffffffffffffffffffffffffffffffffffff1673ffffffffffffffffffffffffffffffffffffffff168152602001908152602001600020549050919050565b600e6020528060005260406000206000915090505481565b606060018054610abe906142d8565b80601f0160208091040260200160405190810160405280929190818152602001828054610aea906142d8565b8015610b375780601f10610b0c57610100808354040283529160200191610b37565b820191906000526020600020905b815481529060010190602001808311610b1a57829003601f168201915b5050505050905090565b600d602052806000526040600020600091509050806000015490806001018054610b6a906142d8565b80601f0160208091040260200160405190810160405280929190818152602001828054610b96906142d8565b8015610be35780601f10610bb857610100808354040283529160200191610be3565b820191906000526020600020905b815481529060010190602001808311610bc657829003601f168201915b505050505090806002018054610bf8906142d8565b80601f0160208091040260200160405190810160405280929190818152602001828054610c24906142d8565b8015610c715780601f10610c4657610100808354040283529160200191610c71565b820191906000526020600020905b815481529060010190602001808311610c5457829003601f168201915b5050505050908060030154908060040154908060050154905086565b610c9f610c98611f13565b8383612319565b5050565b6006806000018054610cb4906142d8565b80601f0160208091040260200160405190810160405280929190818152602001828054610ce0906142d8565b8015610d2d5780601f10610d0257610100808354040283529160200191610d2d565b820191906000526020600020905b815481529060010190602001808311610d1057829003601f168201915b505050505090806001018054610d42906142d8565b80601f0160208091040260200160405190810160405280929190818152602001828054610d6e906142d8565b8015610dbb5780601f10610d9057610100808354040283529160200191610dbb565b820191906000526020600020905b815481529060010190602001808311610d9e57829003601f168201915b5050505050908060020154908060030154908060040154905085565b610de8610de2611f13565b83611fd4565b610e27576040517f08c379a0000000000000000000000000000000000000000000000000000000008152600401610e1e90613f13565b60405180910390fd5b610e3384848484612486565b50505050565b6060600c805480602002602001604051908101604052809291908181526020016000905b82821015610fdb57838290600052602060002090600602016040518060c001604052908160008201548152602001600182018054610e9a906142d8565b80601f0160208091040260200160405190810160405280929190818152602001828054610ec6906142d8565b8015610f135780601f10610ee857610100808354040283529160200191610f13565b820191906000526020600020905b815481529060010190602001808311610ef657829003601f168201915b50505050508152602001600282018054610f2c906142d8565b80601f0160208091040260200160405190810160405280929190818152602001828054610f58906142d8565b8015610fa55780601f10610f7a57610100808354040283529160200191610fa5565b820191906000526020600020905b815481529060010190602001808311610f8857829003601f168201915b50505050508152602001600382015481526020016004820154815260200160058201548152505081526020019060010190610e5d565b50505050905090565b60606000600d60008481526020019081526020016000206040518060c001604052908160008201548152602001600182018054611020906142d8565b80601f016020809104026020016040519081016040528092919081815260200182805461104c906142d8565b80156110995780601f1061106e57610100808354040283529160200191611099565b820191906000526020600020905b81548152906001019060200180831161107c57829003601f168201915b505050505081526020016002820180546110b2906142d8565b80601f01602080910402602001604051908101604052809291908181526020018280546110de906142d8565b801561112b5780601f106111005761010080835404028352916020019161112b565b820191906000526020600020905b81548152906001019060200180831161110e57829003601f168201915b5050505050815260200160038201548152602001600482015481526020016005820154815250509050600061116382606001516124e2565b9050600061117483608001516124e2565b905060006111858460a001516124e2565b905060006111cb856020015161119a896124e2565b87604001518787876040516020016111b7969594939291906139e7565b60405160208183030381529060405261268f565b90506000816040516020016111e09190613a8c565b6040516020818303038152906040529050809650505050505050919050565b611207612f73565b6000600e60003373ffffffffffffffffffffffffffffffffffffffff1673ffffffffffffffffffffffffffffffffffffffff16815260200190815260200160002054905060008111156113c657600d60008281526020019081526020016000206040518060c00160405290816000820154815260200160018201805461128c906142d8565b80601f01602080910402602001604051908101604052809291908181526020018280546112b8906142d8565b80156113055780601f106112da57610100808354040283529160200191611305565b820191906000526020600020905b8154815290600101906020018083116112e857829003601f168201915b5050505050815260200160028201805461131e906142d8565b80601f016020809104026020016040519081016040528092919081815260200182805461134a906142d8565b80156113975780601f1061136c57610100808354040283529160200191611397565b820191906000526020600020905b81548152906001019060200180831161137a57829003601f168201915b5050505050815260200160038201548152602001600482015481526020016005820154815250509150506113d4565b6113ce612f73565b80925050505b90565b6000600e60003373ffffffffffffffffffffffffffffffffffffffff1673ffffffffffffffffffffffffffffffffffffffff1681526020019081526020016000205490506000600d6000838152602001908152602001600020905061143f816003015461284d565b600061146b4233604051602001611457929190613aae565b6040516020818303038152906040526128e6565b9050600a8161147a91906143b2565b90506114858161284d565b60008260030154116114cc576040517f08c379a00000000000000000000000000000000000000000000000000000000081526004016114c390613e93565b60405180910390fd5b60006002826114db91906143b2565b146115015760648260030160008282546114f5919061410d565b9250508190555061151e565b600a826003016000828254611516919061410d565b925050819055505b61152b826003015461284d565b7f0270f980cc7873c6a82060a2ec5500974690a96c68de0e215e545bbb8e1525f16006600201548360030154604051611565929190614001565b60405180910390a1505050565b6000600e60003373ffffffffffffffffffffffffffffffffffffffff1673ffffffffffffffffffffffffffffffffffffffff1681526020019081526020016000205490506000600d600083815260200190815260200160002090506116856040518060600160405280603c8152602001614bbe603c91398260010180546115f8906142d8565b80601f0160208091040260200160405190810160405280929190818152602001828054611624906142d8565b80156116715780601f1061164657610100808354040283529160200191611671565b820191906000526020600020905b81548152906001019060200180831161165457829003601f168201915b505050505083600301548460050154612919565b61175d6040518060400160405280601b81526020017f426f73732025732068617320257320485020616e642025732041440000000000815250600660000180546116ce906142d8565b80601f01602080910402602001604051908101604052809291908181526020018280546116fa906142d8565b80156117475780601f1061171c57610100808354040283529160200191611747565b820191906000526020600020905b81548152906001019060200180831161172a57829003601f168201915b5050505050600660020154600660040154612919565b60008160030154116117a4576040517f08c379a000000000000000000000000000000000000000000000000000000000815260040161179b90613e93565b60405180910390fd5b6000600660020154116117ec576040517f08c379a00000000000000000000000000000000000000000000000000000000081526004016117e390613d93565b60405180910390fd5b8060050154600660020154101561180d57600060066002018190555061182c565b806005015460066002015461182291906141ee565b6006600201819055505b6006600401548160030154101561184c576000816003018190555061186a565b600660040154816003015461186191906141ee565b81600301819055505b611891604051806060016040528060258152602001614b03602591396006600201546129bb565b6118b7604051806060016040528060288152602001614b686028913982600301546129bb565b7f838ab28464562786a6c4ab2311964b82fa60bd9b14aa7e856af1f3f18d41a41460066002015482600301546040516118f1929190614001565b60405180910390a15050565b6000600560008473ffffffffffffffffffffffffffffffffffffffff1673ffffffffffffffffffffffffffffffffffffffff16815260200190815260200160002060008373ffffffffffffffffffffffffffffffffffffffff1673ffffffffffffffffffffffffffffffffffffffff16815260200190815260200160002060009054906101000a900460ff16905092915050565b600061199d600b612a57565b90506119a93382612a65565b6040518060c00160405280838152602001600c84815481106119f4577f4e487b7100000000000000000000000000000000000000000000000000000000600052603260045260246000fd5b90600052602060002090600602016001018054611a10906142d8565b80601f0160208091040260200160405190810160405280929190818152602001828054611a3c906142d8565b8015611a895780601f10611a5e57610100808354040283529160200191611a89565b820191906000526020600020905b815481529060010190602001808311611a6c57829003601f168201915b50505050508152602001600c8481548110611acd577f4e487b7100000000000000000000000000000000000000000000000000000000600052603260045260246000fd5b90600052602060002090600602016002018054611ae9906142d8565b80601f0160208091040260200160405190810160405280929190818152602001828054611b15906142d8565b8015611b625780601f10611b3757610100808354040283529160200191611b62565b820191906000526020600020905b815481529060010190602001808311611b4557829003601f168201915b50505050508152602001600c8481548110611ba6577f4e487b7100000000000000000000000000000000000000000000000000000000600052603260045260246000fd5b9060005260206000209060060201600301548152602001600c8481548110611bf7577f4e487b7100000000000000000000000000000000000000000000000000000000600052603260045260246000fd5b9060005260206000209060060201600401548152602001600c8481548110611c48577f4e487b7100000000000000000000000000000000000000000000000000000000600052603260045260246000fd5b906000526020600020906006020160050154815250600d6000838152602001908152602001600020600082015181600001556020820151816001019080519060200190611c96929190612fa9565b506040820151816002019080519060200190611cb3929190612fa9565b50606082015181600301556080820151816004015560a08201518160050155905050611cf86040518060600160405280602e8152602001614b90602e91398284612a83565b80600e60003373ffffffffffffffffffffffffffffffffffffffff1673ffffffffffffffffffffffffffffffffffffffff16815260200190815260200160002081905550611d46600b611e27565b7f4bc303fd457a97b4691b9af582ce71868a3d258638c8d4f8c60988a0f0bfb8cd338284604051611d7993929190613b41565b60405180910390a15050565b611e2184848484604051602401611d9f9493929190613bd7565b6040516020818303038152906040527f8d142cdd000000000000000000000000000000000000000000000000000000007bffffffffffffffffffffffffffffffffffffffffffffffffffffffff19166020820180517bffffffffffffffffffffffffffffffffffffffffffffffffffffffff8381831617835250505050612b22565b50505050565b6001816000016000828254019250508190555050565b60007f01ffc9a7000000000000000000000000000000000000000000000000000000007bffffffffffffffffffffffffffffffffffffffffffffffffffffffff1916827bffffffffffffffffffffffffffffffffffffffffffffffffffffffff1916149050919050565b60008073ffffffffffffffffffffffffffffffffffffffff166002600084815260200190815260200160002060009054906101000a900473ffffffffffffffffffffffffffffffffffffffff1673ffffffffffffffffffffffffffffffffffffffff1614159050919050565b600033905090565b816004600083815260200190815260200160002060006101000a81548173ffffffffffffffffffffffffffffffffffffffff021916908373ffffffffffffffffffffffffffffffffffffffff160217905550808273ffffffffffffffffffffffffffffffffffffffff16611f8e8361092d565b73ffffffffffffffffffffffffffffffffffffffff167f8c5be1e5ebec7d5bd14f71427d1e84f3dd0314c0f7b2291e5b200ac8c7c3b92560405160405180910390a45050565b6000611fdf82611ea7565b61201e576040517f08c379a000000000000000000000000000000000000000000000000000000000815260040161201590613e13565b60405180910390fd5b60006120298361092d565b90508073ffffffffffffffffffffffffffffffffffffffff168473ffffffffffffffffffffffffffffffffffffffff16148061209857508373ffffffffffffffffffffffffffffffffffffffff1661208084610710565b73ffffffffffffffffffffffffffffffffffffffff16145b806120a957506120a881856118fd565b5b91505092915050565b8273ffffffffffffffffffffffffffffffffffffffff166120d28261092d565b73ffffffffffffffffffffffffffffffffffffffff1614612128576040517f08c379a000000000000000000000000000000000000000000000000000000000815260040161211f90613d73565b60405180910390fd5b600073ffffffffffffffffffffffffffffffffffffffff168273ffffffffffffffffffffffffffffffffffffffff161415612198576040517f08c379a000000000000000000000000000000000000000000000000000000000815260040161218f90613dd3565b60405180910390fd5b6121a3838383612b4b565b6121ae600082611f1b565b6001600360008573ffffffffffffffffffffffffffffffffffffffff1673ffffffffffffffffffffffffffffffffffffffff16815260200190815260200160002060008282546121fe91906141ee565b925050819055506001600360008473ffffffffffffffffffffffffffffffffffffffff1673ffffffffffffffffffffffffffffffffffffffff1681526020019081526020016000206000828254612255919061410d565b92505081905550816002600083815260200190815260200160002060006101000a81548173ffffffffffffffffffffffffffffffffffffffff021916908373ffffffffffffffffffffffffffffffffffffffff160217905550808273ffffffffffffffffffffffffffffffffffffffff168473ffffffffffffffffffffffffffffffffffffffff167fddf252ad1be2c89b69c2b068fc378daa952ba7f163c4a11628f55a4df523b3ef60405160405180910390a4612314838383612b50565b505050565b8173ffffffffffffffffffffffffffffffffffffffff168373ffffffffffffffffffffffffffffffffffffffff161415612388576040517f08c379a000000000000000000000000000000000000000000000000000000000815260040161237f90613df3565b60405180910390fd5b80600560008573ffffffffffffffffffffffffffffffffffffffff1673ffffffffffffffffffffffffffffffffffffffff16815260200190815260200160002060008473ffffffffffffffffffffffffffffffffffffffff1673ffffffffffffffffffffffffffffffffffffffff16815260200190815260200160002060006101000a81548160ff0219169083151502179055508173ffffffffffffffffffffffffffffffffffffffff168373ffffffffffffffffffffffffffffffffffffffff167f17307eab39ab6107e8899845ad3d59bd9653f200f220920489ca2b5937696c31836040516124799190613b9a565b60405180910390a3505050565b6124918484846120b2565b61249d84848484612b55565b6124dc576040517f08c379a00000000000000000000000000000000000000000000000000000000081526004016124d390613d53565b60405180910390fd5b50505050565b6060600082141561252a576040518060400160405280600181526020017f3000000000000000000000000000000000000000000000000000000000000000815250905061268a565b600082905060005b6000821461255c5780806125459061433b565b915050600a826125559190614163565b9150612532565b60008167ffffffffffffffff81111561259e577f4e487b7100000000000000000000000000000000000000000000000000000000600052604160045260246000fd5b6040519080825280601f01601f1916602001820160405280156125d05781602001600182028036833780820191505090505b5090505b60008514612683576001826125e991906141ee565b9150600a856125f891906143b2565b6030612604919061410d565b60f81b818381518110612640577f4e487b7100000000000000000000000000000000000000000000000000000000600052603260045260246000fd5b60200101907effffffffffffffffffffffffffffffffffffffffffffffffffffffffffffff1916908160001a905350600a8561267c9190614163565b94506125d4565b8093505050505b919050565b606060008251905060008114156126b85760405180602001604052806000815250915050612848565b600060036002836126c9919061410d565b6126d39190614163565b60046126df9190614194565b905060006020826126f0919061410d565b67ffffffffffffffff81111561272f577f4e487b7100000000000000000000000000000000000000000000000000000000600052604160045260246000fd5b6040519080825280601f01601f1916602001820160405280156127615781602001600182028036833780820191505090505b5090506000604051806060016040528060408152602001614b28604091399050600181016020830160005b868110156128055760038101905062ffffff818a015116603f8160121c168401518060081b905060ff603f83600c1c1686015116810190508060081b905060ff603f8360061c1686015116810190508060081b905060ff603f831686015116810190508060e01b9050808452600484019350505061278c565b50600386066001811461281f576002811461282f5761283a565b613d3d60f01b600283035261283a565b603d60f81b60018303525b508484525050819450505050505b919050565b6128e3816040516024016128619190613f77565b6040516020818303038152906040527ff5b1bba9000000000000000000000000000000000000000000000000000000007bffffffffffffffffffffffffffffffffffffffffffffffffffffffff19166020820180517bffffffffffffffffffffffffffffffffffffffffffffffffffffffff8381831617835250505050612b22565b50565b6000816040516020016128f991906139d0565b6040516020818303038152906040528051906020012060001c9050919050565b6129b5848484846040516024016129339493929190613c31565b6040516020818303038152906040527fd5cf17d0000000000000000000000000000000000000000000000000000000007bffffffffffffffffffffffffffffffffffffffffffffffffffffffff19166020820180517bffffffffffffffffffffffffffffffffffffffffffffffffffffffff8381831617835250505050612b22565b50505050565b612a5382826040516024016129d1929190613ce5565b6040516020818303038152906040527f9710a9d0000000000000000000000000000000000000000000000000000000007bffffffffffffffffffffffffffffffffffffffffffffffffffffffff19166020820180517bffffffffffffffffffffffffffffffffffffffffffffffffffffffff8381831617835250505050612b22565b5050565b600081600001549050919050565b612a7f828260405180602001604052806000815250612cec565b5050565b612b1d838383604051602401612a9b93929190613d15565b6040516020818303038152906040527f969cdd03000000000000000000000000000000000000000000000000000000007bffffffffffffffffffffffffffffffffffffffffffffffffffffffff19166020820180517bffffffffffffffffffffffffffffffffffffffffffffffffffffffff8381831617835250505050612b22565b505050565b60008151905060006a636f6e736f6c652e6c6f679050602083016000808483855afa5050505050565b505050565b505050565b6000612b768473ffffffffffffffffffffffffffffffffffffffff16612d47565b15612cdf578373ffffffffffffffffffffffffffffffffffffffff1663150b7a02612b9f611f13565b8786866040518563ffffffff1660e01b8152600401612bc19493929190613af5565b602060405180830381600087803b158015612bdb57600080fd5b505af1925050508015612c0c57506040513d601f19601f82011682018060405250810190612c0991906132ed565b60015b612c8f573d8060008114612c3c576040519150601f19603f3d011682016040523d82523d6000602084013e612c41565b606091505b50600081511415612c87576040517f08c379a0000000000000000000000000000000000000000000000000000000008152600401612c7e90613d53565b60405180910390fd5b805181602001fd5b63150b7a0260e01b7bffffffffffffffffffffffffffffffffffffffffffffffffffffffff1916817bffffffffffffffffffffffffffffffffffffffffffffffffffffffff191614915050612ce4565b600190505b949350505050565b612cf68383612d6a565b612d036000848484612b55565b612d42576040517f08c379a0000000000000000000000000000000000000000000000000000000008152600401612d3990613d53565b60405180910390fd5b505050565b6000808273ffffffffffffffffffffffffffffffffffffffff163b119050919050565b600073ffffffffffffffffffffffffffffffffffffffff168273ffffffffffffffffffffffffffffffffffffffff161415612dda576040517f08c379a0000000000000000000000000000000000000000000000000000000008152600401612dd190613eb3565b60405180910390fd5b612de381611ea7565b15612e23576040517f08c379a0000000000000000000000000000000000000000000000000000000008152600401612e1a90613db3565b60405180910390fd5b612e2f60008383612b4b565b6001600360008473ffffffffffffffffffffffffffffffffffffffff1673ffffffffffffffffffffffffffffffffffffffff1681526020019081526020016000206000828254612e7f919061410d565b92505081905550816002600083815260200190815260200160002060006101000a81548173ffffffffffffffffffffffffffffffffffffffff021916908373ffffffffffffffffffffffffffffffffffffffff160217905550808273ffffffffffffffffffffffffffffffffffffffff16600073ffffffffffffffffffffffffffffffffffffffff167fddf252ad1be2c89b69c2b068fc378daa952ba7f163c4a11628f55a4df523b3ef60405160405180910390a4612f4060008383612b50565b5050565b6040518060a0016040528060608152602001606081526020016000815260200160008152602001600081525090565b6040518060c001604052806000815260200160608152602001606081526020016000815260200160008152602001600081525090565b828054612fb5906142d8565b90600052602060002090601f016020900481019282612fd7576000855561301e565b82601f10612ff057805160ff191683800117855561301e565b8280016001018555821561301e579182015b8281111561301d578251825591602001919060010190613002565b5b50905061302b919061302f565b5090565b5b80821115613048576000816000905550600101613030565b5090565b600061305f61305a8461404f565b61402a565b90508281526020810184848401111561307757600080fd5b613082848285614296565b509392505050565b60008135905061309981614aa6565b92915050565b6000813590506130ae81614abd565b92915050565b6000813590506130c381614ad4565b92915050565b6000815190506130d881614ad4565b92915050565b600082601f8301126130ef57600080fd5b81356130ff84826020860161304c565b91505092915050565b60008135905061311781614aeb565b92915050565b60006020828403121561312f57600080fd5b600061313d8482850161308a565b91505092915050565b6000806040838503121561315957600080fd5b60006131678582860161308a565b92505060206131788582860161308a565b9150509250929050565b60008060006060848603121561319757600080fd5b60006131a58682870161308a565b93505060206131b68682870161308a565b92505060406131c786828701613108565b9150509250925092565b600080600080608085870312156131e757600080fd5b60006131f58782880161308a565b94505060206132068782880161308a565b935050604061321787828801613108565b925050606085013567ffffffffffffffff81111561323457600080fd5b613240878288016130de565b91505092959194509250565b6000806040838503121561325f57600080fd5b600061326d8582860161308a565b925050602061327e8582860161309f565b9150509250929050565b6000806040838503121561329b57600080fd5b60006132a98582860161308a565b92505060206132ba85828601613108565b9150509250929050565b6000602082840312156132d657600080fd5b60006132e4848285016130b4565b91505092915050565b6000602082840312156132ff57600080fd5b600061330d848285016130c9565b91505092915050565b60006020828403121561332857600080fd5b600061333684828501613108565b91505092915050565b600061334b838361387b565b905092915050565b61335c81614222565b82525050565b61337361336e82614222565b614384565b82525050565b600061338482614090565b61338e81856140be565b9350836020820285016133a085614080565b8060005b858110156133dc57848403895281516133bd858261333f565b94506133c8836140b1565b925060208a019950506001810190506133a4565b50829750879550505050505092915050565b6133f781614234565b82525050565b60006134088261409b565b61341281856140cf565b93506134228185602086016142a5565b61342b8161449f565b840191505092915050565b6000613441826140a6565b61344b81856140e0565b935061345b8185602086016142a5565b6134648161449f565b840191505092915050565b600061347a826140a6565b61348481856140f1565b93506134948185602086016142a5565b61349d8161449f565b840191505092915050565b60006134b3826140a6565b6134bd8185614102565b93506134cd8185602086016142a5565b80840191505092915050565b60006134e6600b83614102565b91506134f1826144bd565b600b82019050919050565b60006135096032836140f1565b9150613514826144e6565b604082019050919050565b600061352c6025836140f1565b915061353782614535565b604082019050919050565b600061354f6028836140f1565b915061355a82614584565b604082019050919050565b6000613572601c836140f1565b915061357d826145d3565b602082019050919050565b6000613595603283614102565b91506135a0826145fc565b603282019050919050565b60006135b8600e83614102565b91506135c38261464b565b600e82019050919050565b60006135db6024836140f1565b91506135e682614674565b604082019050919050565b60006135fe6019836140f1565b9150613609826146c3565b602082019050919050565b6000613621602c836140f1565b915061362c826146ec565b604082019050919050565b60006136446038836140f1565b915061364f8261473b565b604082019050919050565b6000613667602a836140f1565b91506136728261478a565b604082019050919050565b600061368a6029836140f1565b9150613695826147d9565b604082019050919050565b60006136ad602d836140f1565b91506136b882614828565b604082019050919050565b60006136d0600483614102565b91506136db82614877565b600482019050919050565b60006136f36020836140f1565b91506136fe826148a0565b602082019050919050565b6000613716602c836140f1565b9150613721826148c9565b604082019050919050565b6000613739600a83614102565b915061374482614918565b600a82019050919050565b600061375c6021836140f1565b915061376782614941565b604082019050919050565b600061377f601d83614102565b915061378a82614990565b601d82019050919050565b60006137a26031836140f1565b91506137ad826149b9565b604082019050919050565b60006137c5603d83614102565b91506137d082614a08565b603d82019050919050565b60006137e8602d83614102565b91506137f382614a57565b602d82019050919050565b600060a083016000830151848203600086015261381b8282613436565b915050602083015184820360208601526138358282613436565b915050604083015161384a604086018261399b565b50606083015161385d606086018261399b565b506080830151613870608086018261399b565b508091505092915050565b600060c083016000830151613893600086018261399b565b50602083015184820360208601526138ab8282613436565b915050604083015184820360408601526138c58282613436565b91505060608301516138da606086018261399b565b5060808301516138ed608086018261399b565b5060a083015161390060a086018261399b565b508091505092915050565b600060c083016000830151613923600086018261399b565b506020830151848203602086015261393b8282613436565b915050604083015184820360408601526139558282613436565b915050606083015161396a606086018261399b565b50608083015161397d608086018261399b565b5060a083015161399060a086018261399b565b508091505092915050565b6139a48161428c565b82525050565b6139b38161428c565b82525050565b6139ca6139c58261428c565b6143a8565b82525050565b60006139dc82846134a8565b915081905092915050565b60006139f28261372c565b91506139fe82896134a8565b9150613a09826134d9565b9150613a1582886134a8565b9150613a2082613588565b9150613a2c82876134a8565b9150613a37826137b8565b9150613a4382866134a8565b9150613a4e826135ab565b9150613a5a82856134a8565b9150613a65826137db565b9150613a7182846134a8565b9150613a7c826136c3565b9150819050979650505050505050565b6000613a9782613772565b9150613aa382846134a8565b915081905092915050565b6000613aba82856139b9565b602082019150613aca8284613362565b6014820191508190509392505050565b6000602082019050613aef6000830184613353565b92915050565b6000608082019050613b0a6000830187613353565b613b176020830186613353565b613b2460408301856139aa565b8181036060830152613b3681846133fd565b905095945050505050565b6000606082019050613b566000830186613353565b613b6360208301856139aa565b613b7060408301846139aa565b949350505050565b60006020820190508181036000830152613b928184613379565b905092915050565b6000602082019050613baf60008301846133ee565b92915050565b60006020820190508181036000830152613bcf818461346f565b905092915050565b60006080820190508181036000830152613bf1818761346f565b90508181036020830152613c05818661346f565b9050613c1460408301856139aa565b8181036060830152613c26818461346f565b905095945050505050565b60006080820190508181036000830152613c4b818761346f565b90508181036020830152613c5f818661346f565b9050613c6e60408301856139aa565b613c7b60608301846139aa565b95945050505050565b600060a0820190508181036000830152613c9e818861346f565b90508181036020830152613cb2818761346f565b9050613cc160408301866139aa565b613cce60608301856139aa565b613cdb60808301846139aa565b9695505050505050565b60006040820190508181036000830152613cff818561346f565b9050613d0e60208301846139aa565b9392505050565b60006060820190508181036000830152613d2f818661346f565b9050613d3e60208301856139aa565b613d4b60408301846139aa565b949350505050565b60006020820190508181036000830152613d6c816134fc565b9050919050565b60006020820190508181036000830152613d8c8161351f565b9050919050565b60006020820190508181036000830152613dac81613542565b9050919050565b60006020820190508181036000830152613dcc81613565565b9050919050565b60006020820190508181036000830152613dec816135ce565b9050919050565b60006020820190508181036000830152613e0c816135f1565b9050919050565b60006020820190508181036000830152613e2c81613614565b9050919050565b60006020820190508181036000830152613e4c81613637565b9050919050565b60006020820190508181036000830152613e6c8161365a565b9050919050565b60006020820190508181036000830152613e8c8161367d565b9050919050565b60006020820190508181036000830152613eac816136a0565b9050919050565b60006020820190508181036000830152613ecc816136e6565b9050919050565b60006020820190508181036000830152613eec81613709565b9050919050565b60006020820190508181036000830152613f0c8161374f565b9050919050565b60006020820190508181036000830152613f2c81613795565b9050919050565b60006020820190508181036000830152613f4d81846137fe565b905092915050565b60006020820190508181036000830152613f6f818461390b565b905092915050565b6000602082019050613f8c60008301846139aa565b92915050565b600060c082019050613fa760008301896139aa565b8181036020830152613fb9818861346f565b90508181036040830152613fcd818761346f565b9050613fdc60608301866139aa565b613fe960808301856139aa565b613ff660a08301846139aa565b979650505050505050565b600060408201905061401660008301856139aa565b61402360208301846139aa565b9392505050565b6000614034614045565b9050614040828261430a565b919050565b6000604051905090565b600067ffffffffffffffff82111561406a57614069614470565b5b6140738261449f565b9050602081019050919050565b6000819050602082019050919050565b600081519050919050565b600081519050919050565b600081519050919050565b6000602082019050919050565b600082825260208201905092915050565b600082825260208201905092915050565b600082825260208201905092915050565b600082825260208201905092915050565b600081905092915050565b60006141188261428c565b91506141238361428c565b9250827fffffffffffffffffffffffffffffffffffffffffffffffffffffffffffffffff03821115614158576141576143e3565b5b828201905092915050565b600061416e8261428c565b91506141798361428c565b92508261418957614188614412565b5b828204905092915050565b600061419f8261428c565b91506141aa8361428c565b9250817fffffffffffffffffffffffffffffffffffffffffffffffffffffffffffffffff04831182151516156141e3576141e26143e3565b5b828202905092915050565b60006141f98261428c565b91506142048361428c565b925082821015614217576142166143e3565b5b828203905092915050565b600061422d8261426c565b9050919050565b60008115159050919050565b60007fffffffff0000000000000000000000000000000000000000000000000000000082169050919050565b600073ffffffffffffffffffffffffffffffffffffffff82169050919050565b6000819050919050565b82818337600083830152505050565b60005b838110156142c35780820151818401526020810190506142a8565b838111156142d2576000848401525b50505050565b600060028204905060018216806142f057607f821691505b6020821081141561430457614303614441565b5b50919050565b6143138261449f565b810181811067ffffffffffffffff8211171561433257614331614470565b5b80604052505050565b60006143468261428c565b91507fffffffffffffffffffffffffffffffffffffffffffffffffffffffffffffffff821415614379576143786143e3565b5b600182019050919050565b600061438f82614396565b9050919050565b60006143a1826144b0565b9050919050565b6000819050919050565b60006143bd8261428c565b91506143c88361428c565b9250826143d8576143d7614412565b5b828206905092915050565b7f4e487b7100000000000000000000000000000000000000000000000000000000600052601160045260246000fd5b7f4e487b7100000000000000000000000000000000000000000000000000000000600052601260045260246000fd5b7f4e487b7100000000000000000000000000000000000000000000000000000000600052602260045260246000fd5b7f4e487b7100000000000000000000000000000000000000000000000000000000600052604160045260246000fd5b6000601f19601f8301169050919050565b60008160601b9050919050565b7f202d2d204e465420233a20000000000000000000000000000000000000000000600082015250565b7f4552433732313a207472616e7366657220746f206e6f6e20455243373231526560008201527f63656976657220696d706c656d656e7465720000000000000000000000000000602082015250565b7f4552433732313a207472616e736665722066726f6d20696e636f72726563742060008201527f6f776e6572000000000000000000000000000000000000000000000000000000602082015250565b7f4572726f723a20626f7373206d757374206861766520485020746f206174746160008201527f636b20626f73732e000000000000000000000000000000000000000000000000602082015250565b7f4552433732313a20746f6b656e20616c7265616479206d696e74656400000000600082015250565b7f222c20226465736372697074696f6e223a2022416e2065706963204e4654222c60008201527f2022696d616765223a2022697066733a2f2f0000000000000000000000000000602082015250565b7f2c20226d61785f76616c7565223a000000000000000000000000000000000000600082015250565b7f4552433732313a207472616e7366657220746f20746865207a65726f2061646460008201527f7265737300000000000000000000000000000000000000000000000000000000602082015250565b7f4552433732313a20617070726f766520746f2063616c6c657200000000000000600082015250565b7f4552433732313a206f70657261746f7220717565727920666f72206e6f6e657860008201527f697374656e7420746f6b656e0000000000000000000000000000000000000000602082015250565b7f4552433732313a20617070726f76652063616c6c6572206973206e6f74206f7760008201527f6e6572206e6f7220617070726f76656420666f7220616c6c0000000000000000602082015250565b7f4552433732313a2062616c616e636520717565727920666f7220746865207a6560008201527f726f206164647265737300000000000000000000000000000000000000000000602082015250565b7f4552433732313a206f776e657220717565727920666f72206e6f6e657869737460008201527f656e7420746f6b656e0000000000000000000000000000000000000000000000602082015250565b7f4572726f723a20636861726163746572206d757374206861766520485020746f60008201527f2061747461636b20626f73732e00000000000000000000000000000000000000602082015250565b7f7d205d7d00000000000000000000000000000000000000000000000000000000600082015250565b7f4552433732313a206d696e7420746f20746865207a65726f2061646472657373600082015250565b7f4552433732313a20617070726f76656420717565727920666f72206e6f6e657860008201527f697374656e7420746f6b656e0000000000000000000000000000000000000000602082015250565b7f7b226e616d65223a202200000000000000000000000000000000000000000000600082015250565b7f4552433732313a20617070726f76616c20746f2063757272656e74206f776e6560008201527f7200000000000000000000000000000000000000000000000000000000000000602082015250565b7f646174613a6170706c69636174696f6e2f6a736f6e3b6261736536342c000000600082015250565b7f4552433732313a207472616e736665722063616c6c6572206973206e6f74206f60008201527f776e6572206e6f7220617070726f766564000000000000000000000000000000602082015250565b7f222c202261747472696275746573223a205b207b202274726169745f7479706560008201527f223a20224865616c746820506f696e7473222c202276616c7565223a20000000602082015250565b7f7d2c207b202274726169745f74797065223a202241747461636b2044616d616760008201527f65222c202276616c7565223a2000000000000000000000000000000000000000602082015250565b614aaf81614222565b8114614aba57600080fd5b50565b614ac681614234565b8114614ad157600080fd5b50565b614add81614240565b8114614ae857600080fd5b50565b614af48161428c565b8114614aff57600080fd5b5056fe506c617965722061747461636b656420626f73732e204e657720626f73732068703a2025734142434445464748494a4b4c4d4e4f505152535455565758595a6162636465666768696a6b6c6d6e6f707172737475767778797a303132333435363738392b2f426f73732061747461636b656420706c617965722e204e657720706c617965722068703a2025730a4d696e746564204e465420772f20746f6b656e496420257320616e6420636861726163746572496e6465782025730a506c6179657220772f206368617261637465722025732061626f757420746f2061747461636b2e2048617320257320485020616e64202573204144a2646970667358221220b5720f701ed46ade9ade318c692f5151dce95cd97a74d14f4f8ffb584b1de06664736f6c63430008040033446f6e6520696e697469616c697a696e6720257320772f2048502025732c20696d67202573446f6e6520696e697469616c697a696e6720626f737320257320772f2048502025732c20696d67202573",
  "linkReferences": {},
  "deployedLinkReferences": {}
}